:100000000C942A000C9447000C9447000C94470071
:100010000C9447000C9447000C9447000C94470044
:100020000C9447000C9447000C9447000C94470034
:100030000C9447000C9447000C9447000C94470024
:100040000C9447000C9447000C9447000C94470014
:100050000C94470011241FBECFE5D4E0DEBFCDBF16
:1000600010E0A0E6B0E0EEE1F2E002C005900D92F3
:10007000A036B107D9F710E0A0E6B0E001C01D92AC
:10008000AA38B107E1F70E9492000C940D010C947C
:10009000000083E389B986E880BD88E08AB90895C5
:1000A0009BB18CB90895CF93DF93EC0188818823AD
:1000B00039F0219690E00E94500088818823C9F78A
:1000C000DF91CF910895CF92DF92EF92FF920F933D
:1000D0001F938C016B0185E690E00E9450000F2E6B
:1000E000F0E2EF2EFEE4FF2EF02DC7010197F1F7AD
:1000F000C8010E945000C7010197F1F786E690E021
:100100000E945000C7010197F1F7C6010E945000FC
:10011000C7010197F1F71F910F91FF90EF90DF90CA
:10012000CF90089585E083BF0E94490084E690E067
:100130000E94500066E070E086E090E00E9463005C
:1001400067E070E086E090E00E94630068E070E0A5
:1001500086E090E00E94630068E070E087E090E055
:100160000E94630067E070E087E090E00E94630017
:1001700066E070E087E090E00E94630066E070E077
:1001800088E090E00E94630066E070E089E090E023
:100190000E94630067E070E089E090E00E946300E5
:1001A00067E070E088E090E00E94630068E070E043
:1001B00088E090E00E94630069E070E088E090E0F1
:1001C0000E94630069E070E089E090E00E946300B3
:1001D00068E070E089E090E00E94630068E070E011
:1001E0008AE090E00E94630069E070E08AE090E0BD
:1001F0000E94630069E070E08BE090E00E94630081
:100200006AE070E08BE090E00E9463006BE070E0D9
:0E0210008BE090E00E9463000895F894FFCF09
:00000001FF
