:100000000C942A000C9447000C9447000C94470071
:100010000C9447000C9447000C9447000C94470044
:100020000C9447000C9447000C9447000C94470034
:100030000C9447000C9447000C9447000C94470024
:100040000C9447000C9447000C9447000C94470014
:100050000C94470011241FBECFE5D4E0DEBFCDBF16
:1000600010E0A0E6B0E0E2E4F4E002C005900D92FA
:10007000A036B107D9F710E0A0E6B0E001C01D92AC
:10008000A036B107E1F70E9478000C941F020C948F
:100090000000DF93CF9300D000D000D0CDB7DEB703
:1000A0009E838D831C821B8213C01A82198205C015
:1000B00089819A8101969A83898389819A8123E033
:1000C000893E9207A8F38B819C8101969C838B8348
:1000D0002D813E818B819C812817390730F7269628
:1000E0000FB6F894DEBF0FBECDBFCF91DF9108955C
:1000F000DF93CF9300D000D0CDB7DEB79A8389834A
:100100007C836B830E94F80080E090E00F900F905A
:100110000F900F90CF91DF910895DF93CF9300D090
:1001200000D000D0CDB7DEB7EAE3F0E08FEF8083F8
:10013000E7E3F0E01082E4E3F0E08FEF8083E1E3B7
:10014000F0E01082E5E3F0E084E0808381E090E07D
:100150009C838B833DC080E890E09A8389831BC099
:10016000EBE3F0E08981808380E590E00E94490024
:1001700089819A819E838D838D819E8199232CF420
:100180008D819E8101969E838D838D819E81959523
:1001900087959A83898389819A818230910504F7B2
:1001A00081E090E09A8389830EC0EBE3F0E08981DF
:1001B000808380E590E00E94490089819A81880FC0
:1001C000991F9A83898389819A81803891056CF37C
:1001D0008B819C81009709F0BECF80E090E026964D
:1001E0000FB6F894DEBF0FBECDBFCF91DF9108955B
:1001F000DF93CF93CDB7DEB764970FB6F894DEBF29
:100200000FBECDBFEAE3F0E08FEF8083E7E3F0E0DD
:100210001082E4E3F0E08FEF8083E1E3F0E010820E
:10022000E5E3F0E084E0808381E090E09C878B87C9
:10023000F6C01A86198680E890E09E838D8381E05F
:1002400090E098878F8373C08D819E819C838B8380
:100250001DC0EBE3F0E09B818985890F808380E5F9
:1002600090E00E9449008B819C819E878D878D85BF
:100270009E8599232CF48D859E8501969E878D877A
:100280008D859E85959587959C838B838B819C819D
:1002900018161906F4F282E090E09C838B8310C05C
:1002A000EBE3F0E09B818985890F808380E590E016
:1002B0000E9449008B819C81880F991F9C838B83AE
:1002C0008D819E81988B8F878F85988999232CF4B7
:1002D0008F8598890196988B8F878F8598899595BA
:1002E00087959C018B819C8128173907CCF629853D
:1002F0003A858D819E81820F931F9A8789878D8190
:100300009E819A8B898B89899A8999232CF4898972
:100310009A8901969A8B898B89899A89959587956F
:100320009E838D838F819885019698878F838F8197
:100330009885893091050CF487CF88EC90E00E9475
:1003400049001A86198681E090E09E838D8381E0C2
:1003500090E098878F8359C08D819E819A8389838D
:1003600010C0EBE3F0E099818985890F808380E5F7
:1003700090E00E94490089819A81880F991F9A8391
:10038000898389819A81813891055CF380E890E0C6
:100390009A8389831DC0EBE3F0E099818985890FF9
:1003A000808380E590E00E94490089819A819C8B3E
:1003B0008B8B8B899C8999232CF48B899C89019642
:1003C0009C8B8B8B8B899C89959587959A83898348
:1003D0008D819E819C01220F331F89819A81821712
:1003E0009307CCF629853A858D819E81820F931FD4
:1003F0009A8789878D819E81880F991F9E838D831F
:100400008F819885019698878F838F819885893011
:1004100091050CF4A1CF88EC90E00E9449008B85F7
:100420009C85009709F005CF80E090E064960FB6B8
:10043000F894DEBF0FBECDBFCF91DF910895F89441
:02044000FFCFEC
:00000001FF
