:100000000C942A000C9447000C9447000C94A50112
:100010000C942F010C9447000C9447000C9447005B
:100020000C9447000C9447000C9447000C94470034
:100030000C9447000C9447000C9447000C94470024
:100040000C9447000C9447000C9447000C94470014
:100050000C94470011241FBECFE5D4E0DEBFCDBF16
:1000600010E0A0E6B0E0E2EAF3E002C005900D92F5
:10007000A236B107D9F710E0A2E6B0E001C01D92A8
:10008000A836B107E1F70E94D6000C94CF010C947A
:10009000000083E389B986E880BD88E08AB90895C5
:1000A000FC018081882339F031965D9BFECF8CB9AD
:1000B00080818823C9F708955D9BFECF8CB9089590
:1000C0008ABD1BBC6130710531F06F5F7F4F31F02D
:1000D00080EF82BB089580E782BB089580EB82BBEE
:1000E000089588BD19BC6130710531F06F5F7F4F95
:1000F00031F083E088BB089582E088BB089581E0F9
:1001000088BB089584E084BB85BB8DE08A95F1F7B8
:1001100014BA15BA8CED95E00197F1F79A9BFECFD2
:1001200012BE9A99FECF82B7809366001092670044
:10013000E0E9F1E03197F1F790E0089588E084BBC1
:1001400085BB8DE08A95F1F714BA15BA8CED95E070
:100150000197F1F79B9BFECF12BE9B99FECF82B712
:100160008093660010926700E0E9F1E03197F1F7C3
:1001700090E0089580E184BB85BB8DE08A95F1F71E
:1001800014BA15BA8CED95E00197F1F79C9BFECF60
:1001900012BE9C99FECF82B78093660010926700D2
:1001A000E0E9F1E03197F1F790E00895F89482E00A
:1001B00085BD8DEF83BD80EC89BF8BEF84BD81EA67
:1001C0008FBD81E08EBD84E083BF84E382BB81BBB1
:1001D0008FEF87BB83E389B986E880BD88E08AB961
:1001E000789420EA30E081E090E0B49BFECFB499AF
:1001F000FECF309361002093600090936300809362
:1002000062009093650080936400EFCF20EA30E0B5
:1002100081E090E0B49BFECFB499FECF30936100B3
:100220002093600090936300809362009093650038
:1002300080936400EFCF82E085BD8DEF83BD80ECBD
:1002400089BF8BEF84BD81EA8FBD81E08EBD84E0E4
:1002500083BF84E382BB81BB8FEF87BB08951F926E
:100260000F920FB60F921124EF92FF920F931F93EC
:100270002F933F934F935F936F937F938F939F93AE
:10028000AF93BF93CF93DF93EF93FF9320916200DF
:100290003091630080916000909161008ABD1BBC29
:1002A0002130310509F44AC02F5F3F4F09F43FC0A8
:1002B00080EF82BBC0E0D0E001E010E080E1E82EFA
:1002C00087E2F82EC7010197F1F70E948200909310
:1002D000670080936600089714F40F5F1F4F219604
:1002E000C530D10579F70530110541F4109263004E
:1002F0001092620010926500109264008BEF84BD32
:10030000FF91EF91DF91CF91BF91AF919F918F912D
:100310007F916F915F914F913F912F911F910F911D
:10032000FF90EF900F900FBE0F901F90189580EBED
:1003300082BBC0E0D0E001E010E0C0CF80E782BB2C
:10034000C0E0D0E001E010E0B9CF1F920F920FB6ED
:100350000F9211242F933F938F939F9320916400CA
:1003600030916500809160009091610088BD19BC5A
:100370002130310571F02F5F3F4F71F083E088BB72
:100380009F918F913F912F910F900FBE0F901F90D3
:10039000189582E088BBF4CF81E088BBF1CFF89458
:0203A000FFCF8D
:0203A200A000B9
:00000001FF
