:100000000C942A000C9447000C9447000C941E0298
:100010000C948A010C9447000C9447000C94470000
:100020000C9447000C9447000C9447000C94470034
:100030000C9447000C9447000C9447000C94470024
:100040000C9447000C9447000C9447000C94470014
:100050000C94470011241FBECFE5D4E0DEBFCDBF16
:1000600010E0A0E6B0E0E0E9F4E002C005900D92F7
:10007000A236B107D9F711E0A2E6B0E001C01D92A7
:10008000A839B107E1F70E94F0000C9446020C94E5
:10009000000083E389B986E880BD88E08AB90895C5
:1000A000FC0104C05D9BFECF31968CB98081882312
:1000B000C9F708955D9BFECF8CB90895282F5D9BED
:1000C000FECF85E68CB980E69AEE0197F1F75D9B4D
:1000D000FECF2CB980E69AEE0197F1F75D9BFECF3B
:1000E00086E68CB980E69AEE0197F1F75D9BFECF2C
:1000F0006CB980E69AEE0197F1F708958ABD1BBCB2
:100100006130710511F480E706C06F5F7F4F11F415
:1001100080EB01C080EF82BB089588BD19BC6130BF
:10012000710511F482E006C06F5F7F4F11F481E02A
:1001300001C083E088BB089584E084BB85BB8DE06B
:100140008A95F1F714BA15BA8CED95E00197F1F79D
:100150009A9BFECF12BE9A99FECF82B780936E0013
:1001600010926F00E0E9F1E03197F1F790E0089527
:1001700088E084BB85BB8DE08A95F1F714BA15BA87
:100180008CED95E00197F1F79B9BFECF12BE9B99FA
:10019000FECF82B780936E0010926F00E0E9F1E02D
:1001A0003197F1F790E0089580E184BB85BB8DE045
:1001B0008A95F1F714BA15BA8CED95E00197F1F72D
:1001C0009C9BFECF12BE9C99FECF82B780936E009F
:1001D00010926F00E0E9F1E03197F1F790E00895B7
:1001E00086E090E0909375008093740090936D008A
:1001F00080936C0080916A0090916B0020E030E069
:100200004FE050E019C0F901EE0FFF1FE20FF31F9E
:1002100083E0EE0FFF1F8A95E1F7EA58FF4F80E079
:1002200090E002C04193519301968E309105D1F731
:100230002F5F3F4F8DE090E02D30310524F39093F8
:100240006B0080936A0030937300209372000E94C9
:100250009C009093670080936600F89482E085BDCF
:100260008DEF83BD80EC89BF8BEF84BD81EA8FBDAC
:1002700081E08EBD84E083BF84E382BB81BB8FEFCE
:1002800087BB83E389B986E880BD88E08AB95D9B36
:10029000FECF84E68CB9789420EA30E081E090E0EB
:1002A000B49BFECFB499FECF3093610020936000E1
:1002B0009093630080936200909365008093640044
:1002C000EFCF20EA30E081E090E0B49BFECFB4991C
:1002D000FECF309361002093600090936300809381
:1002E00062009093650080936400EFCF82E085BD4B
:1002F0008DEF83BD80EC89BF8BEF84BD81EA8FBD1C
:1003000081E08EBD84E083BF84E382BB81BB8FEF3D
:1003100087BB08951F920F920FB60F921124EF9290
:10032000FF920F931F932F933F934F935F936F937E
:100330007F938F939F93AF93BF93CF93DF93EF936D
:10034000FF93209162003091630080916000909152
:1003500061008ABD1BBC2130310511F480E706C065
:100360002F5F3F4F11F480EB01C080EF82BB0E94F2
:100370009C009C01909369008093680080916600C6
:1003800090916700821B930B4497E4F08091740076
:1003900090917500909397018093960160916C0005
:1003A00070916D00709371006093700030936700DE
:1003B000209366006F5F7F4F70936D0060936C00B9
:1003C0000E945E0000E010E0C1E0D0E020E1E22EFB
:1003D00027E2F22EC7010197F1F70E949C0090934B
:1003E0006F0080936E0008970CF421960F5F1F4FEB
:1003F0000530110579F7259741F4109263001092AA
:10040000620010926500109264008BEF84BDFF9132
:10041000EF91DF91CF91BF91AF919F918F917F919C
:100420006F915F914F913F912F911F910F91FF908D
:10043000EF900F900FBE0F901F9018951F920F9284
:100440000FB60F9211242F933F938F939F93209178
:10045000640030916500809160009091610088BDDA
:1004600019BC2130310511F482E006C02F5F3F4FE7
:1004700011F481E001C083E088BB9F918F913F918F
:100480002F910F900FBE0F901F901895F894FFCFEB
:02049000A000CA
:00000001FF
