:100000000C942A000C9447000C9447000C94470071
:100010000C9447000C9447000C9480000C9447000B
:100020000C9447000C9447000C9447000C94470034
:100030000C9447000C9447000C9447000C94470024
:100040000C9447000C9447000C9447000C94470014
:100050000C94470011241FBECFE5D4E0DEBFCDBF16
:1000600010E0A0E6B0E0ECE9F1E002C005900D92EE
:10007000A036B107D9F710E0A0E6B0E001C01D92AC
:10008000A036B107E1F70E9449000C94CC000C9413
:100090000000F89480E88FBD81E08EBD8BBD8ABDE5
:1000A00080E189BF1DBC1CBC78948FEF8BBB8BBBE0
:1000B000FDCF8FEF8BBB8BBBFDCF9CB51CBC8ABD2E
:1000C0001BBC6130710559F06F5F7F4F89F080EE86
:1000D00082BB81BB81E88FBD81E08EBD089580E643
:1000E00082BB81BB9CBD81E88FBD81E08EBD089540
:1000F00080EA82BB81BB81E88FBD81E08EBD08951F
:100100001F920F920FB60F9211242F933F934F938C
:100110005F936F937F938F939F93AF93BF93EF936F
:10012000FF9361E070E08FEA90E00E945D001DBCEB
:100130001CBCFF91EF91BF91AF919F918F917F91E7
:100140006F915F914F913F912F910F900FBE0F9044
:100150001F9018958ABD1BBC88E082BB6130710579
:1001600059F06F5F7F4F81F083E088BB87BB81E8E8
:100170008FBD81E08EBD089581E088BB87BB81E89B
:100180008FBD81E08EBD089582E088BB87BB81E88A
:0C0190008FBD81E08EBD0895F894FFCF74
:00000001FF
