:100000000C942A000C9447000C9447000C948F0029
:100010000C9447000C9447000C9447000C94470044
:100020000C9447000C9447000C9447000C94470034
:100030000C9447000C9447000C9447000C94470024
:100040000C9447000C9447000C9447000C94470014
:100050000C94470011241FBECFE5D4E0DEBFCDBF16
:1000600010E0A0E6B0E0E2EAF1E002C005900D92F7
:10007000A036B107D9F710E0A0E6B0E001C01D92AC
:10008000A236B107E1F70E944E000C94CF000C9409
:1000900000008FEF8BBB0E9449000895F89482E224
:1000A00085BD88E083BD80E889BF14BC78940E9438
:1000B000490080E090E008958ABD1BBC6130710565
:1000C00021F480E682BB81BB0AC06F5F7F4F21F4C1
:1000D00080EA82BB81BB03C080EE82BB81BB81E82A
:1000E0008FBD81E08EBD089588BD19BC80E182BBC3
:1000F00081BB6130710521F481E088BB87BB0AC0F8
:100100006F5F7F4F21F482E088BB87BB03C083E031
:1001100088BB87BB81E28FBD81E08EBD08951F92B1
:100120000F920FB60F9211242F933F934F935F932B
:100130006F937F938F939F93AF93BF93EF93FF93AF
:100140008091600090916100892B69F460E070E01B
:100150008FEF90E00E945C0081E090E0909361005E
:10016000809360000AC060E070E08FEF90E00E9432
:100170007400109261001092600014BCFF91EF9126
:10018000BF91AF919F918F917F916F915F914F91AF
:100190003F912F910F900FBE0F901F901895F894DC
:0201A000FFCF8F
:00000001FF
