:100000000C9446000C9465000C9465000C946500FB
:100010000C9465000C9465000C9465000C946500CC
:100020000C9465000C9465000C9465000C946500BC
:100030000C9465000C9465000C9465000C946500AC
:100040000C9465000C9465000C9465000C9465009C
:100050000C9465000C9465000C9465000C9465008C
:100060000C9465000C9465000C9465000C9465007C
:100070000C9465000C9465000C9465000C9465006C
:100080000C9465000C9465000C94650011241FBE4F
:10009000CFEFD0E1DEBFCDBF11E0A0E0B1E0ECE0FA
:1000A000F1E000E00BBF02C007900D92A030B10755
:1000B000D9F711E0A0E0B1E001C01D92A030B10776
:1000C000E1F70E9467000C9484000C9400008FEF0D
:1000D0008ABB87BB84BB11BA84E085BB8EBD20E0A0
:1000E00030E04FEF8CB59DB58452944FD8F321305A
:1000F000310521F44BBB20E030E003C01BBA21E006
:0C01000030E01DBC1CBCEECFF894FFCF1B
:00000001FF
