:100000000C942A000C9447000C9447000C94470071
:100010000C9447000C9447000C9447000C94470044
:100020000C9447000C9447000C9447000C94470034
:100030000C9447000C9447000C9447000C94470024
:100040000C9447000C9447000C9447000C94470014
:100050000C94470011241FBECFE5D4E0DEBFCDBF16
:1000600010E0A0E6B0E0EAE3F6E002C005900D92F1
:10007000A438B107D9F710E0A4E8B0E001C01D92A0
:10008000AE38B107E1F70E94DB020C941B030C941D
:100090000000DF93CF9300D000D000D0CDB7DEB703
:1000A0009E838D831C821B8213C01A82198205C015
:1000B00089819A8101969A83898389819A8123E033
:1000C000893E9207A8F38B819C8101969C838B8348
:1000D0002D813E818B819C812817390730F7269628
:1000E0000FB6F894DEBF0FBECDBFCF91DF9108955C
:1000F000DF93CF9300D000D0CDB7DEB79A8389834A
:100100007C836B838B819C8101979C838B8389810A
:100110009A81FC013296208131818B819C818217EA
:100120009307B4F089819A81FC0134962081318152
:100130008B819C81821793075CF089819A81FC01F5
:100140003696208131818B819C8182179307CCF474
:1001500089819A81FC01329680E190E091838083CD
:1001600089819A81FC01349680E190E091838083BB
:1001700089819A81FC01369680E190E091838083A9
:1001800041C1E6E3F0E08081882F90E084709070B8
:10019000009709F46EC089819A81FC013296208112
:1001A00031818B819C812817390754F489819A8188
:1001B000FC0132968081918101969183808359C0A0
:1001C00089819A81FC0132961182108289819A81FB
:1001D000FC013496208131818B819C81281739075D
:1001E00054F489819A81FC01349680819181019631
:1001F000918380833EC089819A81FC01349611826B
:10020000108289819A81FC013696208131818B810F
:100210009C812817390754F489819A81FC0136960C
:100220008081918101969183808323C089819A8105
:10023000FC013696208131818B819C8128173907FA
:10024000C4F089819A81FC01329680E190E091832B
:10025000808389819A81FC01349680E190E09183CA
:10026000808389819A81FC01369680E190E09183B8
:100270008083E6E3F0E08081882F90E084709070C6
:100280000097B9F7E6E3F0E08081882F90E0807175
:100290009070009709F4ADC089819A81FC01329673
:1002A00080819181009741F589819A81FC01349682
:1002B00080819181009701F589819A81FC013696B0
:1002C000808191810097C1F489819A81FC013296E5
:1002D00080E190E09183808389819A81FC0134964A
:1002E00080E190E09183808389819A81FC01369638
:1002F00080E190E09183808389819A81FC0132962C
:10030000808191818031910599F489819A81FC01E4
:100310003496808191818031910551F489819A814F
:10032000FC013696808191818031910509F461C08C
:1003300089819A81FC013296808191811816190673
:1003400054F489819A81FC013296808191810197D0
:10035000918380834EC089819A81FC0132968B8182
:100360009C819183808389819A81FC01349680816C
:1003700091811816190654F489819A81FC013496EA
:100380008081918101979183808333C089819A8193
:10039000FC0134968B819C819183808389819A8131
:1003A000FC013696808191811816190654F48981D2
:1003B0009A81FC0136968081918101979183808397
:1003C00018C089819A81FC01329680E190E0918386
:1003D000808389819A81FC01349680E190E0918349
:1003E000808389819A81FC01369680E190E0918337
:1003F0008083E6E3F0E08081882F90E08071907048
:100400000097B9F789819A810F900F900F900F9004
:10041000CF91DF910895DF93CF9300D000D0CDB777
:10042000DEB79A8389837C836B83EAE3F0E08FEF06
:100430008083E7E3F0E01082E4E3F0E08FEF808375
:10044000E1E3F0E01082109285001092840089812F
:100450009A812AE030E0B9010E94F402909387006B
:100460008093860089819A812AE030E0B9010E9458
:10047000F402CB012AE030E0B9010E94F40290932B
:1004800089008093880089819A8124E630E0B9014F
:100490000E94F402CB012AE030E0B9010E94F4028C
:1004A00090938B0080938A0077C081E090E09093D6
:1004B0008D0080938C0068C08B819C8124E830E0A3
:1004C000BC01C9010E94780080918C0090918D0040
:1004D00081309105B1F4E5E3F0E088E08083ABE39F
:1004E000B0E08091860090918700880F991FFC01F1
:1004F000E05AFF4F808191818C9381E090E00E94CF
:10050000490080918C0090918D0082309105B1F46A
:10051000E5E3F0E080E18083ABE3B0E08091880028
:1005200090918900880F991FFC01E05AFF4F80814C
:1005300091818C9381E090E00E94490080918C0031
:1005400090918D0083309105B1F4E5E3F0E080E215
:100550008083ABE3B0E080918A0090918B00880F9C
:10056000991FFC01E05AFF4F808191818C9381E0BB
:1005700090E00E94490080918C0090918D0001963E
:1005800090938D0080938C0080918C0090918D00D1
:10059000843091050CF490CF80918200909183007B
:1005A0008130910509F481CF0F900F900F900F903B
:1005B000CF91DF910895DF93CF9300D000D0CDB7D6
:1005C000DEB79A8389837C836B836AE070E087EE71
:1005D00093E00E940B0280E090E00F900F900F904C
:1005E0000F90CF91DF91089597FB092E07260AD02F
:1005F00077FD04D00CD006D000201AF470956195D8
:100600007F4F0895F6F7909581959F4F0895AA1B07
:10061000BB1B51E107C0AA1FBB1FA617B70710F0ED
:10062000A61BB70B881F991F5A95A9F7809590951F
:0A063000BC01CD010895F894FFCF3E
:10063A003F0006005B004F0066006D007D0007006A
:10064A007F006F0077007C0039005E00790071003E
:04065A00400001005B
:00000001FF
