:100000000C942A000C9447000C9447000C94C300F5
:100010000C9499000C9447000C9447000C944700F2
:100020000C9447000C9447000C9447000C94470034
:100030000C9447000C9447000C9447000C94470024
:100040000C9447000C9447000C9447000C94470014
:100050000C94470011241FBECFE5D4E0DEBFCDBF16
:1000600010E0A0E6B0E0E6E1F2E002C005900D92FB
:10007000A436B107D9F710E0A4E6B0E001C01D92A4
:10008000A836B107E1F70E9481000C9409010C9495
:10009000000020E030E002C02F5F3F4F821793073F
:1000A000D8F7089582E085BD8CEF83BD80EC89BFD1
:1000B00088EF84BD81EA8FBD81E08EBD84E382BB81
:1000C00081BB8FEF87BB089532E02FEF91E033BF04
:1000D00012BE24BB15BA95BB15BA95BB93BB24BB06
:1000E0009899FECF12BE989BFECF82B78F3F79F3CF
:1000F00010926500109264001092670010926600E2
:10010000E6CFF89482E085BD8CEF83BD80EC89BF9B
:1001100088EF84BD81EA8FBD81E08EBD84E382BB20
:1001200081BB8FEF87BB78940E94640080E090E0F1
:1001300008951F920F920FB60F9211242F933F93A1
:100140008F939F93209164003091650080916000AF
:10015000909161008ABD1BBC2130310511F480E70C
:1001600006C02F5F3F4F11F480EB01C080EF82BBD0
:1001700088EF84BD9F918F913F912F910F900FBE7B
:100180000F901F9018951F920F920FB60F92112487
:100190002F933F938F939F93209166003091670038
:1001A000809160009091610088BD19BC21303105BB
:1001B00011F482E006C02F5F3F4F11F481E001C0CF
:1001C00083E088BB9F918F913F912F910F900FBE3D
:1001D0000F901F9018958ABD1BBC6130710511F4FA
:1001E00080E706C06F5F7F4F11F480EB01C080EFA6
:1001F00082BB089588BD19BC6130710511F482E09D
:1002000006C06F5F7F4F11F481E001C083E088BBBF
:060210000895F894FFCFF1
:040216008C00010057
:00000001FF
