:100000000C942A000C9447000C9447000C94470071
:100010000C9447000C9447000C9447000C94470044
:100020000C9447000C9447000C9447000C94470034
:100030000C9447000C9447000C9447000C94470024
:100040000C9447000C9447000C9447000C94470014
:100050000C94470011241FBECFE5D4E0DEBFCDBF16
:1000600010E0A0E6B0E0EAECF0E002C005900D92EE
:10007000A036B107D9F710E0A0E6B0E001C01D92AC
:10008000A036B107E1F70E9449000C9463000C947C
:10009000000088E087BB1DBC1CBC80E890E09BBDD5
:1000A0008ABD89EC8FBD81E08EBDFFCF88E087BB24
:1000B0001DBC1CBC80E890E09BBD8ABD89EC8FBD57
:0A00C00081E08EBD0895F894FFCF93
:00000001FF
