:100000000C942A000C9447000C9447000C940B01AC
:100010000C94E1000C9447000C9447000C944700AA
:100020000C9447000C9447000C9447000C94470034
:100030000C9447000C9447000C9447000C94470024
:100040000C9447000C9447000C9447000C94470014
:100050000C94470011241FBECFE5D4E0DEBFCDBF16
:1000600010E0A0E6B0E0E6EAF2E002C005900D92F2
:10007000A436B107D9F710E0A4E6B0E001C01D92A4
:10008000A836B107E1F70E94C9000C9451010C9405
:100090000000209162003091630061E070E04FEF5A
:1000A0005FEFB29B2EC0B299FECF80916400909119
:1000B00065008F5F9F4F39F48091660090916700D3
:1000C0008F5F9F4F61F08091640090916500892B54
:1000D00079F48091660090916700892B49F47093C0
:1000E0006500609364007093670060936600D9CFE9
:1000F00050936500409364005093670040936600FE
:10010000D0CFB39B3BC0B399FECF21303105C9F4AA
:100110008091600090916100803B910534F4809162
:10012000600090916100059618C0809160009091E8
:1001300061000597909361008093600020E030E0BB
:10014000B0CF80916000909161008139910554F0A9
:100150008091600090916100059790936100809379
:1001600060009FCF80916000909161000596909310
:1001700061008093600021E030E093CFB49B91CF89
:100180001092650010926400109267001092660051
:1001900088CFF89482E085BD8CEF83BD80EC89BF69
:1001A00088EF84BD81EA8FBD81E08EBD84E382BB90
:1001B00081BB8FEF87BB78940E94490080E090E07C
:1001C00008951F920F920FB60F9211242F933F9311
:1001D0008F939F932091640030916500809160001F
:1001E000909161008ABD1BBC2130310511F480E77C
:1001F00006C02F5F3F4F11F480EB01C080EF82BB40
:1002000088EF84BD9F918F913F912F910F900FBEEA
:100210000F901F9018951F920F920FB60F921124F6
:100220002F933F938F939F932091660030916700A7
:10023000809160009091610088BD19BC213031052A
:1002400011F482E006C02F5F3F4F11F481E001C03E
:1002500083E088BB9F918F913F912F910F900FBEAC
:100260000F901F9018958ABD1BBC6130710511F469
:1002700080E706C06F5F7F4F11F480EB01C080EF15
:1002800082BB089588BD19BC6130710511F482E00C
:1002900006C06F5F7F4F11F481E001C083E088BB2F
:0602A0000895F894FFCF61
:0402A6008C000100C7
:00000001FF
