:100000000C942A000C9447000C9447000C94470071
:100010000C9447000C9447000C9447000C94470044
:100020000C9447000C9447000C9447000C94470034
:100030000C9447000C9447000C9447000C94470024
:100040000C9447000C9447000C9447000C94470014
:100050000C94470011241FBECFE5D4E0DEBFCDBF16
:1000600010E0A0E6B0E0E4E0F1E002C005900D92FF
:10007000A036B107D9F710E0A0E6B0E001C01D92AC
:10008000A036B107E1F70E9473000C9480000C9435
:1000900000008ABD1BBC6130710511F480E606C00A
:1000A0006F5F7F4F11F480EA01C080EE82BB81BB9D
:1000B00081E88FBD81E08EBD08958ABD1BBC88E0BC
:1000C00082BB6130710511F481E006C06F5F7F4F24
:1000D00011F482E001C083E088BB87BB81E88FBD5B
:1000E00081E08EBD089561E070E08FEA90E00E94AB
:1000F000490061E070E08FEA90E00E945D00F3CF7C
:04010000F894FFCFA1
:00000001FF
