:100000000C942A000C9447000C9447000C94470071
:100010000C9447000C9447000C9447000C94470044
:100020000C9447000C9447000C9447000C94470034
:100030000C9447000C9447000C9447000C94470024
:100040000C9447000C9447000C9447000C94470014
:100050000C94470011241FBECFE5D4E0DEBFCDBF16
:1000600011E0A0E6B0E0EAE6F3E102C005900D92EF
:10007000A836B107D9F711E0A8E6B1E001C01D929A
:10008000AA36B107E1F70E9449000C94B3090C9419
:100090000000DF93CF93CDB7DEB7EF970FB6F8949C
:1000A000DEBF0FBECDBFE3E5F0E081E08083E7E394
:1000B000F0E088E0808380E090E0A0EAB0E48BAFDD
:1000C0009CAFADAFBEAF2BEA3AEA4AEA5EE36BAD56
:1000D0007CAD8DAD9EAD0E94A104DC01CB018FAB48
:1000E00098AFA9AFBAAF20E030E040E85FE36FA976
:1000F00078AD89AD9AAD0E94A50688231CF481E0F5
:100100008EAB91C020E030E04FE753E46FA978ADAB
:1001100089AD9AAD0E94450618160CF07BC020E010
:1001200030E04AE754E46BAD7CAD8DAD9EAD0E94EE
:100130009B05DC01CB018AAB9BABACABBDAB20E03C
:1001400030E04AE753E46AA97BA98CA99DA90E94E3
:10015000A104DC01CB018EA79FA7A8ABB9AB20E01F
:1001600030E040E85FE36EA57FA588A999A90E94C9
:10017000A50688232CF481E090E09DA78CA73FC0C2
:1001800020E03FEF4FE757E46EA57FA588A999A926
:100190000E94450618164CF520E030E040E251E49C
:1001A0006AA97BA98CA99DA90E94A104DC01CB01AD
:1001B000BC01CD010E94CB02DC01CB019DA78CA725
:1001C0000FC089E190E09BA78AA78AA59BA501970C
:1001D000F1F79BA78AA78CA59DA501979DA78CA742
:1001E0008CA59DA5009769F724C06EA57FA588A959
:1001F00099A90E94CB02DC01CB019DA78CA78CA5FD
:100200009DA599A788A788A599A50197F1F799A712
:1002100088A70FC06FA978AD89AD9AAD0E94CB02B7
:10022000DC01CB018EAB8EA98FA38FA18A95F1F74C
:100230008FA3E7E3F0E0108280E090E8ABE3B4E462
:100240008BA39CA3ADA3BEA32BEA3AEA4AEA5EE3E2
:100250006BA17CA18DA19EA10E94A104DC01CB0118
:100260008F8F98A3A9A3BAA320E030E040E85FE312
:100270006F8D78A189A19AA10E94A50688231CF4FC
:1002800081E08E8F91C020E030E04FE753E46F8D26
:1002900078A189A19AA10E94450618160CF07BC08E
:1002A00020E030E04AE754E46BA17CA18DA19EA13F
:1002B0000E949B05DC01CB018A8F9B8FAC8FBD8F89
:1002C00020E030E04AE753E46A8D7B8D8C8D9D8D74
:1002D0000E94A104DC01CB018E8B9F8BA88FB98F6C
:1002E00020E030E040E85FE36E897F89888D998D5A
:1002F0000E94A50688232CF481E090E09D8B8C8BD6
:100300003FC020E03FEF4FE757E46E897F89888D3B
:10031000998D0E94450618164CF520E030E040E229
:1003200051E46A8D7B8D8C8D9D8D0E94A104DC0132
:10033000CB01BC01CD010E94CB02DC01CB019D8B26
:100340008C8B0FC089E190E09B8B8A8B8A899B897B
:100350000197F1F79B8B8A8B8C899D8901979D8BE7
:100360008C8B8C899D89009769F724C06E897F8961
:10037000888D998D0E94CB02DC01CB019D8B8C8BEB
:100380008C899D89998B888B888999890197F1F748
:10039000998B888B0FC06F8D78A189A19AA10E943B
:1003A000CB02DC01CB018E8F8E8D8F878F858A9556
:1003B000F1F78F87E6E3F0E08081882F90E0887086
:1003C00090700097B9F3E2E5F0E01082E6E3F0E028
:1003D0008081882F90E0887090700097B9F7E2E5EF
:1003E000F0E08081882F90E0AA2797FDA095BA2F92
:1003F000BC01CD010E94D506DC01CB0121E73DE324
:100400004AE85EE3BC01CD010E94A104DC01CB01FE
:1004100024EF3DE743E952E4BC01CD010E949B0576
:10042000DC01CB0120E030E040E050E4BC01CD0134
:100430000E949B05DC01CB01BC01CD010E9433076A
:10044000DC01CB0190936901809368010E94A102B5
:1004500080916801909169010E94B40280E090E06F
:10046000A0E8BFE38B879C87AD87BE8720E030E0A4
:100470004AE753E46B857C858D859E850E94A104A7
:10048000DC01CB018F839887A987BA8720E030E011
:1004900040E85FE36F81788589859A850E94A5068B
:1004A00088232CF481E090E09E838D833FC020E080
:1004B0003FEF4FE757E46F81788589859A850E94E1
:1004C000450618164CF520E030E040E251E46B851B
:1004D0007C858D859E850E94A104DC01CB01BC0139
:1004E000CD010E94CB02DC01CB019E838D830FC026
:1004F00089E190E09C838B838B819C810197F1F74C
:100500009C838B838D819E8101979E838D838D81BA
:100510009E81009769F7CBCD6F81788589859A8513
:100520000E94CB02DC01CB019E838D838D819E8155
:100530009A83898389819A810197F1F79A838983C4
:10054000B6CDDF93CF93CDB7DEB7E9E2F0E087E633
:100550008083E0E4F0E08EE08083EAE2F0E088E08F
:100560008083CF91DF910895DF93CF930F92CDB722
:10057000DEB78983EBE2F0E08081882F90E0807223
:1005800090700097B9F3ECE2F0E0898180830F90DE
:10059000CF91DF910895EF92FF920F931F937B010C
:1005A0008C0120E030E040E05FE40E947506882383
:1005B0008CF020E030E040E05FE4C801B7010E9429
:1005C00043040E9433079B01AC012050304040405F
:1005D000504806C0C801B7010E9433079B01AC0117
:1005E000B901CA011F910F91FF90EF900895A0E00B
:1005F000B0E0EDEFF2E00C947C09DC012B01FA0194
:100600009C91923008F439C1EB018881823008F462
:1006100033C1943069F4843009F02FC111969C9154
:1006200011978981981709F428C1A0E6B0E025C187
:10063000843009F421C18230A9F4923009F01DC13F
:100640009A01AD0188E0EA010990AE01E901099241
:100650009E018150C1F7E201898111969C91892305
:10066000818308C1923009F407C112962D903C9005
:100670001397EB018A819B811496AD90BD90CD902C
:10068000DC901797EC80FD800E811F819101281B63
:10069000390BB90137FF04C066277727621B730B3C
:1006A000603271050CF061C0121613066CF537014B
:1006B0004801062E04C096948794779467940A9410
:1006C000D2F721E030E040E050E004C0220F331FB9
:1006D000441F551F6A95D2F721503040404050408A
:1006E0002E213F214023512321153105410551057C
:1006F00021F021E030E040E050E079018A01E62875
:10070000F728082919293CC0232BD1F1260E371EC2
:1007100035014601062E04C0969487947794679419
:100720000A94D2F721E030E040E050E004C0220F0C
:10073000331F441F551F6A95D2F721503040404067
:1007400050402A213B214C215D21211531054105D5
:10075000510521F021E030E040E050E059016A010C
:10076000A628B728C828D9280BC0821593052CF0D5
:100770001C01AA24BB24650103C0EE24FF248701C9
:1007800011969C91D20111968C91981709F445C04D
:10079000992339F0A80197012A193B094C095D09F1
:1007A00006C0A60195012E193F09400B510B57FDBC
:1007B00008C0118233822282248335834683578383
:1007C0001DC081E081833382228288279927DC0142
:1007D000821B930BA40BB50B84839583A683B783ED
:1007E0000DC0220F331F441F551F248335834683BA
:1007F00057838281938101979383828324813581FA
:1008000046815781DA01C9010197A109B1098F5FBA
:100810009F4FAF4FBF4328F30BC091833382228297
:10082000EA0CFB1C0C1D1D1DE482F5820683178358
:1008300083E08083248135814681578157FF1AC028
:10084000C901AA2797FDA095BA2F81709070A0705A
:10085000B0705695479537952795822B932BA42BEF
:10086000B52B84839583A683B78382819381019678
:1008700093838283DF0101C0D201CD01CDB7DEB702
:10088000E2E10C949809A0E2B0E0E9E4F4E00C9411
:10089000880969837A838B839C832D833E834F836E
:1008A0005887E9E0EE2EF12CEC0EFD1EB701CE01CB
:1008B00001960E94AB088E010F5E1F4FB801CE015A
:1008C00005960E94AB088A8991E089278A8BAE0140
:1008D000475E5F4FB801C7010E94F7020E94D6072A
:1008E000A096E6E00C94A409A0E2B0E0EAE7F4E008
:1008F0000C94880969837A838B839C832D833E8340
:100900004F835887F9E0EF2EF12CEC0EFD1EB70156
:10091000CE0101960E94AB088E010F5E1F4FB801F9
:10092000CE0105960E94AB08AE01475E5F4FB8014D
:10093000C7010E94F7020E94D607A096E6E00C9439
:10094000A409A0E2B0E0E7EAF4E00C947C09698332
:100950007A838B839C832D833E834F835887BE018C
:10096000675F7F4FCE0101960E94AB08BE016F5EAC
:100970007F4FCE0105960E94AB089985923088F092
:1009800089898230C8F0943019F4823051F404C05F
:10099000843029F4923081F480E690E0C6C0923031
:1009A00049F420E09A858A89981321E02A87CE01AC
:1009B0000996BBC0823049F420E09A858A89981351
:1009C00021E02A8BCE014196B0C02D843E844F8415
:1009D00058886D887E888F88988CEE24FF24870144
:1009E000AA24BB24650140E050E060E070E0E0E054
:1009F000F0E0C10181709070892BE9F0E60CF71CE2
:100A0000081D191D9A01AB012A0D3B1D4C1D5D1DD2
:100A100080E090E0A0E0B0E0E614F70408051905D6
:100A200020F481E090E0A0E0B0E0BA01A901480F15
:100A3000591F6A1F7B1FAA0CBB1CCC1CDD1C97FE18
:100A400008C081E090E0A0E0B0E0A82AB92ACA2A54
:100A5000DB2A3196E032F10549F0660C771C881CE0
:100A6000991C5694479437942794C3CFFA85EA8902
:100A70002B893C898B859C85280F391F2E5F3F4F22
:100A800017C0CA0181709070892B61F01695079587
:100A9000F794E79480E090E0A0E0B0E8E82AF92A33
:100AA0000A2B1B2B76956795579547952F5F3F4FE0
:100AB00077FDE7CF0CC0440F551F661F771F17FD4A
:100AC0004160EE0CFF1C001F111F215030404030D0
:100AD00090E0590790E0690790E4790760F32B8F65
:100AE0003C8FDB01CA018F779070A070B0708034AA
:100AF0009105A105B10561F447FD0AC0E114F104B7
:100B00000105110529F0405C5F4F6F4F7F4F407822
:100B10001A8EFE1711F081E08A8F4D8F5E8F6F8FD6
:100B200078A383E0898FCE0149960E94D607A096CC
:100B3000E2E10C949809A8E1B0E0E1EAF5E00C9458
:100B4000840969837A838B839C832D833E834F83BF
:100B50005887B9E0EB2EF12CEC0EFD1EB701CE014B
:100B600001960E94AB088E010F5E1F4FB801CE01A7
:100B700005960E94AB082985223008F47CC039898B
:100B8000323010F4B8017AC08A859A8989278A8719
:100B9000243011F0223031F4231709F06CC060E6E4
:100BA00070E06CC0343039F41D861E861F86188AAA
:100BB0001C861B8604C0323021F484E08987B7018B
:100BC0005DC02B853C858B899C89281B390B3C8714
:100BD0002B87ED84FE840F851889AD88BE88CF8869
:100BE000D88CEA14FB040C051D0540F4EE0CFF1C28
:100BF000001F111F215030403C872B8720E030E040
:100C000040E050E080E090E0A0E0B0E46FE170E010
:100C1000EA14FB040C051D0540F0282B392B4A2B48
:100C20005B2BEA18FB080C091D09B695A79597954B
:100C30008795EE0CFF1C001F111F6150704041F79B
:100C4000DA01C9018F779070A070B070803491057F
:100C5000A105B10561F427FD0AC0E114F104010505
:100C6000110529F0205C3F4F4F4F5F4F20782D87B3
:100C70003E874F87588BBE01675F7F4FCB010E9435
:100C8000D6076896EAE00C94A009A8E1B0E0EBE48E
:100C9000F6E00C94880969837A838B839C832D8387
:100CA0003E834F83588789E0E82EF12CEC0EFD1E21
:100CB000B701CE0101960E94AB088E010F5E1F4F57
:100CC000B801CE0105960E94AB088985823040F0BC
:100CD0008989823028F0B801C7010E94230901C028
:100CE0008FEF6896E6E00C94A409A8E1B0E0EBE78A
:100CF000F6E00C94880969837A838B839C832D8327
:100D00003E834F83588789E0E82EF12CEC0EFD1EC0
:100D1000B701CE0101960E94AB088E010F5E1F4FF6
:100D2000B801CE0105960E94AB088985823040F05B
:100D30008989823028F0B801C7010E94230901C0C7
:100D40008FEF6896E6E00C94A409A8E1B0E0EBEA26
:100D5000F6E00C94880969837A838B839C832D83C6
:100D60003E834F83588789E0E82EF12CEC0EFD1E60
:100D7000B701CE0101960E94AB088E010F5E1F4F96
:100D8000B801CE0105960E94AB088985823040F0FB
:100D90008989823028F0B801C7010E94230901C067
:100DA00081E06896E6E00C94A409A8E0B0E0EBEDE1
:100DB000F6E00C9485099B01AC0183E08983DA019C
:100DC000C9018827B7FD83959927AA27BB27B82E85
:100DD000211531054105510519F482E089833AC096
:100DE0008823A9F0203080E0380780E0480780E8B9
:100DF000580729F460E070E080E09FEC30C0EE24FA
:100E0000FF248701E21AF30A040B150B02C07901D3
:100E10008A018EE1C82ED12CDC82CB82ED82FE824B
:100E20000F831887C801B7010E948707019718161A
:100E3000190684F4082E04C0EE0CFF1C001F111FBD
:100E40000A94D2F7ED82FE820F831887C81AD90A56
:100E5000DC82CB82BA82CE0101960E94D607289608
:100E6000E9E00C94A109ACE0B0E0E9E3F7E00C9410
:100E70008C0969837A838B839C83BE016B5F7F4F70
:100E8000CE0101960E94AB088D81823061F18230E3
:100E900050F1843021F48E81882351F12EC02F81AE
:100EA000388537FD20C06E812F3131051CF0662357
:100EB000F9F023C08EE190E0821B930B29853A85DF
:100EC0004B855C8504C056954795379527958A953F
:100ED000D2F76623B1F050954095309521953F4F5C
:100EE0004F4F5F4F0EC020E030E040E050E009C0BF
:100EF0002FEF3FEF4FEF5FE704C020E030E040E02E
:100F000050E8B901CA012C96E2E00C94A809EF92CE
:100F1000FF920F931F937B018C0180E0E81680E025
:100F2000F80681E0080780E0180788F48FEFE816DC
:100F3000F1040105110531F028F088E090E0A0E00F
:100F4000B0E017C080E090E0A0E0B0E012C080E028
:100F5000E81680E0F80680E0080781E0180728F02E
:100F600088E190E0A0E0B0E004C080E190E0A0E083
:100F7000B0E020E230E040E050E0281B390B4A0BA3
:100F80005B0B04C016950795F794E7948A95D2F702
:100F9000F701E859FF4F8081281B310941095109A8
:100FA000C9011F910F91FF90EF900895DF92EF928A
:100FB000FF920F931F93FC01E480F5800681178157
:100FC000D1808081823048F480E090E0A0E1B0E000
:100FD000E82AF92A0A2B1B2BA5C0843009F49FC0EC
:100FE000823021F4EE24FF24870105C0E114F104CE
:100FF0000105110519F4E0E0F0E096C0628173810B
:101000009FEF623879070CF05BC022E83FEF261BA8
:10101000370B2A3131052CF020E030E040E050E081
:101020002AC0B801A701022E04C07695679557958E
:1010300047950A94D2F781E090E0A0E0B0E004C0C8
:10104000880F991FAA1FBB1F2A95D2F70197A109E4
:10105000B1098E219F21A023B1230097A105B105DD
:1010600021F081E090E0A0E0B0E09A01AB01282BF4
:10107000392B4A2B5B2BDA01C9018F779070A07056
:10108000B07080349105A105B10539F427FF09C07E
:10109000205C3F4F4F4F5F4F04C0215C3F4F4F4F8D
:1010A0005F4FE0E0F0E02030A0E03A07A0E04A0720
:1010B000A0E45A0710F0E1E0F0E079018A0127C0CE
:1010C0006038710564F5FB01E158FF4FD801C70195
:1010D0008F779070A070B07080349105A105B10534
:1010E00039F4E7FE0DC080E490E0A0E0B0E004C079
:1010F0008FE390E0A0E0B0E0E80EF91E0A1F1B1F8E
:1011000017FF05C016950795F794E794319687E089
:1011100016950795F794E7948A95D1F705C0EE24C4
:10112000FF248701EFEFF0E06E2F67956627679544
:10113000902F9F77D794DD24D7948E2F8695492FB3
:10114000462B582F5D29B701CA011F910F91FF90BF
:10115000EF90DF900895FC01DB01408151812281F5
:10116000622F6F7770E0221F2227221F9381892F21
:10117000880F822B282F30E0991F9927991F1196ED
:101180009C93119721153105A9F54115510561056C
:10119000710511F482E037C082E89FEF13969C93AB
:1011A0008E9312979A01AB0167E0220F331F441F01
:1011B000551F6A95D1F783E08C930DC0220F331F22
:1011C000441F551F12968D919C911397019713966A
:1011D0009C938E931297203080E0380780E0480778
:1011E00080E4580758F314962D933D934D935C93E8
:1011F000179708952F3F310579F441155105610581
:10120000710519F484E08C93089564FF03C081E0B4
:101210008C9312C01C9210C02F57304013963C93F1
:101220002E93129783E08C9387E0440F551F661F1F
:10123000771F8A95D1F7706414964D935D936D93E3
:101240007C93179708951F93DC01FB019C919230CA
:1012500008F447C08081823008F443C0943051F4D0
:1012600011961C91843099F58181682F70E0611B83
:1012700071093FC0843021F0923031F48230B9F1ED
:101280008181882389F12DC011961C91119782309C
:10129000F1F081811817D9F412962D913C91139792
:1012A000828193818217930794F028173907BCF045
:1012B00014968D919D910D90BC91A02D2481358126
:1012C00046815781281739074A075B0718F411230D
:1012D00041F00AC082179307A407B50740F4112311
:1012E00019F061E070E005C06FEF7FEF02C060E0D1
:1012F00070E0CB011F9108952F923F924F925F9221
:101300006F927F928F929F92AF92BF92CF92DF9215
:10131000EF92FF920F931F93CF93DF93CDB7DEB77A
:10132000CA1BDB0B0FB6F894DEBF0FBECDBF09940E
:101330002A88398848885F846E847D848C849B8465
:10134000AA84B984C884DF80EE80FD800C811B8173
:10135000AA81B981CE0FD11D0FB6F894DEBF0FBEA2
:0A136000CDBFED010895F894FFCF12
:10136A000000000000000000000102020303030362
:10137A00040404040404040405050505050505051B
:10138A0005050505050505050606060606060606FB
:10139A0006060606060606060606060606060606E3
:1013AA0006060606060606060707070707070707CB
:1013BA0007070707070707070707070707070707B3
:1013CA0007070707070707070707070707070707A3
:1013DA000707070707070707070707070707070793
:1013EA00070707070707070708080808080808087B
:1013FA000808080808080808080808080808080863
:10140A000808080808080808080808080808080852
:10141A000808080808080808080808080808080842
:10142A000808080808080808080808080808080832
:10143A000808080808080808080808080808080822
:10144A000808080808080808080808080808080812
:10145A000808080808080808080808080808080802
:08146A0008080808080808083A
:00000001FF
