:100000000C942A000C9447000C9447000C94470071
:100010000C9447000C9447000C9447000C94470044
:100020000C9447000C9447000C9447000C94470034
:100030000C9447000C9447000C9447000C94470024
:100040000C9447000C9447000C9447000C94470014
:100050000C94470011241FBECFE5D4E0DEBFCDBF16
:1000600010E0A0E6B0E0E0EDF1E002C005900D92F6
:10007000A036B107D9F710E0A0E6B0E001C01D92AC
:10008000AA38B107E1F70E9462000C94E6000C94D4
:10009000000087E689B986EA80BD88E08AB90895BC
:1000A0009BB18CB90895CF93DF93EC0188818823AD
:1000B00031F021960E94500088818823D1F7DF918A
:1000C000CF9108952F923F924F925F926F927F92BD
:1000D0008F929F92AF92BF92CF92DF92EF92FF9258
:1000E0000F931F93CF93DF9385E083BF0E94490056
:1000F0000F2EFBE28F2E9924F02D0F2EF4E3CF2E3E
:10010000DD24F02D0F2EF5E3AF2EBB24F02D0F2EA6
:10011000F8EB6F2EFBE07F2EF02D03E310E00F2EA7
:10012000F2E5EF2EFF24F02D0F2EF2E64F2EF0E039
:100130005F2EF02D0F2EF8E82F2EF3E13F2EF02D3D
:10014000C0E9D1E02CC088E0F6018083F50180830E
:100150008AE18A95F1F7F6011082F5011082C30158
:100160000197F1F7F801808183FFFCCFF70110823E
:10017000F801808183FDFCCFF701808180936000CE
:1001800010926100C2010E94530084E60E94500058
:100190009101CE010197F1F721503040D1F7F401E0
:1001A000808183FFD0CFDF91CF911F910F91FF907E
:1001B000EF90DF90CF90BF90AF909F908F907F9007
:1001C0006F905F904F903F902F900895F894FFCFDD
:00000001FF
