:100000000C942A000C9447000C9447000C94E300D5
:100010000C94B9000C9447000C9447000C944700D2
:100020000C9447000C9447000C9447000C94470034
:100030000C9447000C9447000C9447000C94470024
:100040000C9447000C9447000C9447000C94470014
:100050000C94470011241FBECFE5D4E0DEBFCDBF16
:1000600010E0A0E6B0E0E6E5F2E002C005900D92F7
:10007000A436B107D9F710E0A4E6B0E001C01D92A4
:10008000A836B107E1F70E94A1000C9429010C9455
:10009000000020E030E002C02F5F3F4F821793073F
:1000A000D8F7089582E085BD8CEF83BD80EC89BFD1
:1000B00088EF84BD81EA8FBD81E08EBD84E382BB81
:1000C00081BB8FEF87BB0895EFEF70E861E041E0FF
:1000D00050E02FEF3FEFEABB7BBB1BBA1ABA12BE50
:1000E00063BFC99BFECF13BE82B78091640090911D
:1000F00065008F5F9F4F39F4809166009091670093
:100100008F5F9F4F61F08091640090916500892B13
:1001100079F48091660090916700892B49F450939F
:100120006500409364005093670040936600D3CF0E
:10013000309365002093640030936700209366003D
:10014000CACFF89482E085BD8CEF83BD80EC89BF77
:1001500088EF84BD81EA8FBD81E08EBD84E382BBE0
:1001600081BB8FEF87BB78940E94640080E090E0B1
:1001700008951F920F920FB60F9211242F933F9361
:100180008F939F932091640030916500809160006F
:10019000909161008ABD1BBC2130310511F480E7CC
:1001A00006C02F5F3F4F11F480EB01C080EF82BB90
:1001B00088EF84BD9F918F913F912F910F900FBE3B
:1001C0000F901F9018951F920F920FB60F92112447
:1001D0002F933F938F939F932091660030916700F8
:1001E000809160009091610088BD19BC213031057B
:1001F00011F482E006C02F5F3F4F11F481E001C08F
:1002000083E088BB9F918F913F912F910F900FBEFC
:100210000F901F9018958ABD1BBC6130710511F4B9
:1002200080E706C06F5F7F4F11F480EB01C080EF65
:1002300082BB089588BD19BC6130710511F482E05C
:1002400006C06F5F7F4F11F481E001C083E088BB7F
:060250000895F894FFCFB1
:040256008C00010017
:00000001FF
