:100000000C942A000C9447000C9447000C94470071
:100010000C9447000C9447000C9447000C94470044
:100020000C9447000C9447000C9447000C94470034
:100030000C9447000C9447000C9447000C94470024
:100040000C9447000C9447000C9447000C94470014
:100050000C94470011241FBECFE5D4E0DEBFCDBF16
:1000600010E0A0E6B0E0E8E2F1E102C005900D92F8
:10007000A836B107D9F710E0A8E6B0E001C01D929C
:10008000A239B107E1F70E9449000C9492080C9440
:100090000000DF93CF9300D0CDB7DEB70E94CB0036
:1000A00084E690E00E94FD0066E070E086E090E06B
:1000B0000E94120167E070E086E090E00E94120169
:1000C00068E070E086E090E00E94120168E070E075
:1000D00087E090E00E94120167E070E087E090E026
:1000E0000E94120166E070E087E090E00E94120139
:1000F00066E070E088E090E00E94120166E070E047
:1001000089E090E00E94120167E070E089E090E0F1
:100110000E94120167E070E088E090E00E94120106
:1001200068E070E088E090E00E94120169E070E011
:1001300088E090E00E94120169E070E089E090E0C0
:100140000E94120168E070E089E090E00E941201D4
:1001500068E070E08AE090E00E94120169E070E0DF
:100160008AE090E00E94120169E070E08BE090E08C
:100170000E9412016AE070E08BE090E00E941201A0
:100180006BE070E08BE090E00E9412010F900F9006
:10019000CF91DF910895DF93CF93CDB7DEB7E9E23A
:1001A000F0E083E38083E0E4F0E086E88083EAE245
:1001B000F0E088E08083CF91DF910895DF93CF93C3
:1001C00000D0CDB7DEB79A8389830DC0E981FA816B
:1001D0008081282F30E089819A8101969A838983D2
:1001E000C9010E94FD00E981FA818081882371F7AD
:1001F0000F900F90CF91DF910895DF93CF9300D0B0
:100200000F92CDB7DEB79A838983EBE2F0E080816D
:10021000ECE2F0E0898180830F900F900F90CF91F6
:10022000DF910895DF93CF93CDB7DEB7EC970FB68C
:10023000F894DEBF0FBECDBF9AAF89AF7CAF6BAF76
:1002400085E690E00E94FD0080E090E0A0EFB1E440
:100250008DAB9EABAFABB8AF20E030E04AEF54E4DB
:100260006DA97EA98FA998AD0E94D704DC01CB01AE
:1002700089AB9AABABABBCAB20E030E040E85FE3CE
:1002800069A97AA98BA99CA90E94310688232CF41C
:1002900081E090E098AB8FA73FC020E03FEF4FE7B1
:1002A00057E469A97AA98BA99CA90E94D1051816BF
:1002B0004CF520E030E040E251E46DA97EA98FA921
:1002C00098AD0E94D704DC01CB01BC01CD010E9496
:1002D0000103DC01CB0198AB8FA70FC088EC90E045
:1002E0009EA78DA78DA59EA50197F1F79EA78DA727
:1002F0008FA598A9019798AB8FA78FA598A900976C
:1003000069F714C069A97AA98BA99CA90E94010365
:10031000DC01CB0198AB8FA78FA598A99CA78BA7D1
:100320008BA59CA50197F1F79CA78BA789AD9AADEA
:100330000E94FD0080E090E0A0EFB1E48FA398A7B9
:10034000A9A7BAA720E030E04AEF54E46FA178A54E
:1003500089A59AA50E94D704DC01CB018BA39CA39D
:10036000ADA3BEA320E030E040E85FE36BA17CA139
:100370008DA19EA10E94310688232CF481E090E09B
:100380009AA389A33FC020E03FEF4FE757E46BA15A
:100390007CA18DA19EA10E94D10518164CF520E0EC
:1003A00030E040E251E46FA178A589A59AA50E94AA
:1003B000D704DC01CB01BC01CD010E940103DC01AB
:1003C000CB019AA389A30FC088EC90E098A38F8FEC
:1003D0008F8D98A10197F1F798A38F8F89A19AA18A
:1003E00001979AA389A389A19AA1009769F714C0DC
:1003F0006BA17CA18DA19EA10E940103DC01CB0118
:100400009AA389A389A19AA19E8F8D8F8D8D9E8D90
:100410000197F1F79E8F8D8F86E690E00E94FD0098
:1004200080E090E0A0EFB1E4898F9A8FAB8FBC8F12
:1004300020E030E04AEF54E4698D7A8D8B8D9C8DFD
:100440000E94D704DC01CB018D8B9E8BAF8BB88FC4
:1004500020E030E040E85FE36D897E898F89988DE8
:100460000E94310688232CF481E090E09C8B8B8BDA
:100470003FC020E03FEF4FE757E46D897E898F89C9
:10048000988D0E94D10518164CF520E030E040E22E
:1004900051E4698D7A8D8B8D9C8D0E94D704DC018F
:1004A000CB01BC01CD010E940103DC01CB019C8B7F
:1004B0008B8B0FC088EC90E09A8B898B89899A8905
:1004C0000197F1F79A8B898B8B899C8901979C8B7B
:1004D0008B8B8B899C89009769F714C06D897E8905
:1004E0008F89988D0E940103DC01CB019C8B8B8B43
:1004F0008B899C89988B8F878F8598890197F1F7D5
:10050000988B8F878BAD9CAD0E94FD0080E090E0C2
:10051000A0EFB1E48B879C87AD87BE8720E030E0F9
:100520004AEF54E46B857C858D859E850E94D704B7
:10053000DC01CB018F839887A987BA8720E030E060
:1005400040E85FE36F81788589859A850E9431064E
:1005500088232CF481E090E09E838D833FC020E0CF
:100560003FEF4FE757E46F81788589859A850E9430
:10057000D10518164CF520E030E040E251E46B85DF
:100580007C858D859E850E94D704DC01CB01BC0152
:10059000CD010E940103DC01CB019E838D830FC03E
:1005A00088EC90E09C838B838B819C810197F1F791
:1005B0009C838B838D819E8101979E838D838D810A
:1005C0009E81009769F714C06F81788589859A8527
:1005D0000E940103DC01CB019E838D838D819E816E
:1005E0009A83898389819A810197F1F79A83898314
:1005F000EC960FB6F894DEBF0FBECDBFCF91DF9162
:100600000895EF92FF920F931F937B018C0120E0DE
:1006100030E040E05FE40E94010688238CF020E097
:1006200030E040E05FE4C801B7010E9479040E9415
:1006300061069B01AC01205030404040504806C04C
:10064000C801B7010E9461069B01AC01B901CA0152
:100650001F910F91FF90EF900895A0E0B0E0E3E3C9
:10066000F3E00C945B08DC012B01FA019C919230C1
:1006700008F439C1EB018881823008F433C1943029
:1006800069F4843009F02FC111969C9111978981EA
:10069000981709F428C1A0E6B0E025C1843009F418
:1006A00021C18230A9F4923009F01DC19A01AD0137
:1006B00088E0EA010990AE01E90109929E018150AA
:1006C000C1F7E201898111969C918923818308C138
:1006D000923009F407C112962D903C901397EB01CC
:1006E0008A819B811496AD90BD90CD90DC90179738
:1006F000EC80FD800E811F819101281B390BB9010F
:1007000037FF04C066277727621B730B60327105C1
:100710000CF061C0121613066CF537014801062E65
:1007200004C096948794779467940A94D2F721E052
:1007300030E040E050E004C0220F331F441F551F3B
:100740006A95D2F721503040404050402E213F2141
:1007500040235123211531054105510521F021E0A8
:1007600030E040E050E079018A01E628F7280829C6
:1007700019293CC0232BD1F1260E371E3501460125
:10078000062E04C096948794779467940A94D2F7BF
:1007900021E030E040E050E004C0220F331F441F4E
:1007A000551F6A95D2F721503040404050402A21D1
:1007B0003B214C215D21211531054105510521F0D9
:1007C00021E030E040E050E059016A01A628B72856
:1007D000C828D9280BC0821593052CF01C01AA2427
:1007E000BB24650103C0EE24FF24870111969C9170
:1007F000D20111968C91981709F445C0992339F0CC
:10080000A80197012A193B094C095D0906C0A601F8
:1008100095012E193F09400B510B57FD08C011825D
:100820003382228224833583468357831DC081E02F
:1008300081833382228288279927DC01821B930BD4
:10084000A40BB50B84839583A683B7830DC0220FB9
:10085000331F441F551F248335834683578382816A
:1008600093810197938382832481358146815781C7
:10087000DA01C9010197A109B1098F5F9F4FAF4FFD
:10088000BF4328F30BC0918333822282EA0CFB1C06
:100890000C1D1D1DE482F5820683178383E080838F
:1008A000248135814681578157FF1AC0C901AA2783
:1008B00097FDA095BA2F81709070A070B07056957A
:1008C000479537952795822B932BA42BB52B8483A3
:1008D0009583A683B78382819381019693838283D4
:1008E000DF0101C0D201CD01CDB7DEB7E2E10C944A
:1008F0007708A0E2B0E0EFE7F4E00C9467086983C2
:100900007A838B839C832D833E834F835887E9E0D2
:10091000EE2EF12CEC0EFD1EB701CE0101960E94C9
:100920008A078E010F5E1F4FB801CE0105960E9407
:100930008A078A8991E089278A8BAE01475E5F4FDB
:10094000B801C7010E942D030E94B506A096E6E0FB
:100950000C948308A0E2B0E0E0EBF4E00C946708AC
:1009600069837A838B839C832D833E834F8358874F
:10097000F9E0EF2EF12CEC0EFD1EB701CE01019631
:100980000E948A078E010F5E1F4FB801CE010596A7
:100990000E948A07AE01475E5F4FB801C7010E94FF
:1009A0002D030E94B506A096E6E00C948308A0E211
:1009B000B0E0EDEDF4E00C945B0869837A838B83FF
:1009C0009C832D833E834F835887BE01675F7F4F93
:1009D000CE0101960E948A07BE016F5E7F4FCE0155
:1009E00005960E948A079985923088F0898982301D
:1009F000C8F0943019F4823051F404C0843029F4E2
:100A0000923081F480E690E0C6C0923049F420E054
:100A10009A858A89981321E02A87CE010996BBC05E
:100A2000823049F420E09A858A89981321E02A8B44
:100A3000CE014196B0C02D843E844F8458886D8885
:100A40007E888F88988CEE24FF248701AA24BB24FB
:100A5000650140E050E060E070E0E0E0F0E0C101FE
:100A600081709070892BE9F0E60CF71C081D191DA8
:100A70009A01AB012A0D3B1D4C1D5D1D80E090E0ED
:100A8000A0E0B0E0E614F7040805190520F481E0C1
:100A900090E0A0E0B0E0BA01A901480F591F6A1F19
:100AA0007B1FAA0CBB1CCC1CDD1C97FE08C081E080
:100AB00090E0A0E0B0E0A82AB92ACA2ADB2A319641
:100AC000E032F10549F0660C771C881C991C56949D
:100AD000479437942794C3CFFA85EA892B893C89B8
:100AE0008B859C85280F391F2E5F3F4F17C0CA0189
:100AF00081709070892B61F016950795F794E794B3
:100B000080E090E0A0E0B0E8E82AF92A0A2B1B2B4D
:100B100076956795579547952F5F3F4F77FDE7CFC0
:100B20000CC0440F551F661F771F17FD4160EE0C68
:100B3000FF1C001F111F21503040403090E059072A
:100B400090E0690790E4790760F32B8F3C8FDB011D
:100B5000CA018F779070A070B07080349105A105A4
:100B6000B10561F447FD0AC0E114F1040105110566
:100B700029F0405C5F4F6F4F7F4F40781A8EFE1711
:100B800011F081E08A8F4D8F5E8F6F8F78A383E0A5
:100B9000898FCE0149960E94B506A096E2E10C9499
:100BA0007708A8E1B0E0E7EDF5E00C946708698309
:100BB0007A838B839C832D833E834F83588789E080
:100BC000E82EF12CEC0EFD1EB701CE0101960E941D
:100BD0008A078E010F5E1F4FB801CE0105960E9455
:100BE0008A078985823040F08989823028F0B801EF
:100BF000C7010E94020801C08FEF6896E6E00C94DE
:100C00008308A8E1B0E0E7E0F6E00C9467086983A8
:100C10007A838B839C832D833E834F83588789E01F
:100C2000E82EF12CEC0EFD1EB701CE0101960E94BC
:100C30008A078E010F5E1F4FB801CE0105960E94F4
:100C40008A078985823040F08989823028F0B8018E
:100C5000C7010E94020801C08FEF6896E6E00C947D
:100C60008308A8E1B0E0E7E3F6E00C946708698345
:100C70007A838B839C832D833E834F83588789E0BF
:100C8000E82EF12CEC0EFD1EB701CE0101960E945C
:100C90008A078E010F5E1F4FB801CE0105960E9494
:100CA0008A078985823040F08989823028F0B8012E
:100CB000C7010E94020801C081E06896E6E00C943A
:100CC0008308ACE0B0E0E7E6F6E00C946B086983DB
:100CD0007A838B839C83BE016B5F7F4FCE0101962D
:100CE0000E948A078D81823061F1823050F1843018
:100CF00021F48E81882351F12EC02F81388537FD54
:100D000020C06E812F3131051CF06623F9F023C01D
:100D10008EE190E0821B930B29853A854B855C859B
:100D200004C056954795379527958A95D2F766233F
:100D3000B1F050954095309521953F4F4F4F5F4F03
:100D40000EC020E030E040E050E009C02FEF3FEF60
:100D50004FEF5FE704C020E030E040E050E8B90129
:100D6000CA012C96E2E00C948708DF92EF92FF9282
:100D70000F931F93FC01E480F58006811781D180D9
:100D80008081823048F480E090E0A0E1B0E0E82A81
:100D9000F92A0A2B1B2BA5C0843009F49FC082308E
:100DA00021F4EE24FF24870105C0E114F1040105BC
:100DB000110519F4E0E0F0E096C0628173819FEFC5
:100DC000623879070CF05BC022E83FEF261B370B37
:100DD0002A3131052CF020E030E040E050E02AC01C
:100DE000B801A701022E04C07695679557954795DF
:100DF0000A94D2F781E090E0A0E0B0E004C0880F50
:100E0000991FAA1FBB1F2A95D2F70197A109B10903
:100E10008E219F21A023B1230097A105B10521F0C8
:100E200081E090E0A0E0B0E09A01AB01282B392BE3
:100E30004A2B5B2BDA01C9018F779070A070B070DC
:100E400080349105A105B10539F427FF09C0205C64
:100E50003F4F4F4F5F4F04C0215C3F4F4F4F5F4F9D
:100E6000E0E0F0E02030A0E03A07A0E04A07A0E48C
:100E70005A0710F0E1E0F0E079018A0127C06038FC
:100E8000710564F5FB01E158FF4FD801C7018F7769
:100E90009070A070B07080349105A105B10539F44F
:100EA000E7FE0DC080E490E0A0E0B0E004C08FE376
:100EB00090E0A0E0B0E0E80EF91E0A1F1B1F17FF2C
:100EC00005C016950795F794E794319687E0169537
:100ED0000795F794E7948A95D1F705C0EE24FF248F
:100EE0008701EFEFF0E06E2F679566276795902FEB
:100EF0009F77D794DD24D7948E2F8695492F462B44
:100F0000582F5D29B701CA011F910F91FF90EF90F3
:100F1000DF900895FC01DB01408151812281622F25
:100F20006F7770E0221F2227221F9381892F880F5D
:100F3000822B282F30E0991F9927991F11969C9397
:100F4000119721153105A9F5411551056105710567
:100F500011F482E037C082E89FEF13969C938E9342
:100F600012979A01AB0167E0220F331F441F551FF0
:100F70006A95D1F783E08C930DC0220F331F441F75
:100F8000551F12968D919C911397019713969C93E0
:100F90008E931297203080E0380780E0480780E485
:100FA000580758F314962D933D934D935C931797E0
:100FB00008952F3F310579F44115510561057105FB
:100FC00019F484E08C93089564FF03C081E08C934E
:100FD00012C01C9210C02F57304013963C932E9392
:100FE000129783E08C9387E0440F551F661F771F8D
:100FF0008A95D1F7706414964D935D936D937C93AD
:10100000179708951F93DC01FB019C91923008F41F
:1010100047C08081823008F443C0943051F4119667
:101020001C91843099F58181682F70E0611B7109F2
:101030003FC0843021F0923031F48230B9F18181A7
:10104000882389F12DC011961C9111978230F1F0FF
:1010500081811817D9F412962D913C9113978281B2
:1010600093818217930794F028173907BCF01496E0
:101070008D919D910D90BC91A02D2481358146814B
:101080005781281739074A075B0718F4112341F0E5
:101090000AC082179307A407B50740F4112319F07B
:1010A00061E070E005C06FEF7FEF02C060E070E0CC
:1010B000CB011F9108952F923F924F925F926F92B2
:1010C0007F928F929F92AF92BF92CF92DF92EF92D8
:1010D000FF920F931F93CF93DF93CDB7DEB7CA1B59
:1010E000DB0B0FB6F894DEBF0FBECDBF09942A8884
:1010F000398848885F846E847D848C849B84AA842C
:10110000B984C884DF80EE80FD800C811B81AA81B8
:10111000B981CE0FD11D0FB6F894DEBF0FBECDBF83
:08112000ED010895F894FFCFE2
:081128000000000000000000BF
:00000001FF
